:0200000480403A
:F0A50000780D00003082046E308202A6A00302010202042418DC93303D06092A864886F70D01010A3030A00D300B0609608648016503040201A11A301806092A864886F70D010108300B0609608648016503040201A203020120300E310C300A06035504030C0341524D3020170D3233303531313138323534395A180F32313539303631383030353430335A30123110300E06035504030C074B657943657274308201A2300D06092A864886F70D01010105000382018F003082018A0282018100D7CA1894DD0FF7276F58B72C1C42307D1723061616D07DA2D44DDF6E54204510BD235910E80296AEF47C43C52271A0AFF34FD041
:F0A5F000D5711445B858F77F50CE824EF6045A8C9BFE95E6AAB96A7C0691E9D0A007B3066289077F4C640C2AF0A632BF53E5A97A3AC3F179A132D454FEEEF52BA4C07EA0265B5EC5E42203BC59BF704D5B62892668A87539503713FEEBA6549645E2BEE662E91606398086DAF2D5D72A11E1280ABB15C002302710AD54BF0C1737A7FE94F7360F22291A6DC81A131BDE05BE5110A203C64EBAFCC9DEE269A813FAD5C192A649098E956452484F396CA12D875A4FEB822DF4FE77422AC20F101FF630CBAA871FDFDD40F1472F20E6C2D33D87B5C4FCD058FBDC56C10CC7FFF5986179401499F0E424377FA1D09A9FE6E1156ED0A9AD
:F0A6E0000FB4453DC963E40B978ABC7A86A65C8ACE7455C5F74D577A4777037463696266C400431A743EDA3F292CBABE47DB95D7BB048D57D8A76622747CA2A350710C0476ABAF28C5F366BA6FF286FDBC172FF4D6293EC2FB36C10BDB334060EF0203010001A36E306C301A06036401010101FF0410636B4253000001007200000000000000301E06036401020101FF0414000000000000000000000097DA0B27D589AAA488302E06036401030101FF04240000000005782E169A39E6DE612FE3234CF4AD99C3132E22E58C065361A69E303E38593D303D06092A864886F70D01010A3030A00D300B06096086480165030402010B
:F0A7D000A11A301806092A864886F70D010108300B0609608648016503040201A2030201200382018100365C21CAABB914C7D66DF79714DC48A1E3FD55CB4DCFC4FD290E5B6C5233539B9E29002222BC8FF6B7F68D5C140D747BBF4FAA6E219C8A59A4E7D6FDF2ADB2ECE9B33BA343D211FD8B3BCC8F51EFCC361A320D045D55A2B7B9E8C1DBC43EF0A61B26F950000E069E607E7D0D9492B621E120469D3AA1BE0EC9826F5EA1AEB8FC71A37A6E23BCC1A56343FABA31D8053066E5078FBE96283D98954E28CB8028D3859F9EE4E2B00F96DB2F1B6D512ECB88472173993F5B5213F05CBEBF4B2295C1B5DB70BC73E40FF831C80A
:F0A8C0005D30CB8945F390A1DA0968C9D4F9D2C787804D3CA9E91383E7D9D75B18A0A827F7E7D7AE1202C44BA7ADCF78BCADFBB218A1F60D81866BDF94D8DC03923D6433C633058A05B3BEB6A1CFCC6EDBC7F4665A236893B842FB831BEFBF5CDF49991659FC7FAE21E88004C497D6AD4557645A455F5F4AB4F6AE3874E91B314AE134368C91599463014AF2F9AACED526C17B1AA4FB6545FB93D319F392A94F1DE4E63E49515954CD7A86CCC91E9AFD8E40021E25670F8F48D53082046E308202A6A003020102020441DADD68303D06092A864886F70D01010A3030A00D300B0609608648016503040201A11A301806092A86481D
:F0A9B00086F70D010108300B0609608648016503040201A203020120300E310C300A06035504030C0341524D3020170D3233303531313138323535305A180F32313539303631383030353430345A30123110300E06035504030C074B657943657274308201A2300D06092A864886F70D01010105000382018F003082018A0282018100BD6B17E8DA1F643C339650512E179F510767D9EEB8C85D381EFED51DA8AF580EBF9B13E56B33A9D40F9B0B14018A36F2961E7FD8D2DA70CE49B1E97A7C87B4B60537C353F2E72654926C451B32177E60BC11EC940C438E1E734055C08062C14D1A5E79652917EBD48C27C009A12165067EB8
:F0AAA0003E7D1B52C12E20093ED6A232543FD646590A06403F6B3B2D72CBE7421B9E9BE76E97E92B128FF8E091C18676786B6DC7BBADEF1C2A1433A1B14A4303828C1BC3BE98730EBF2E4CE68C0A99BA40DB5C427058F3B84792AF5608263210885CA71568D4598C1778C3BF938EA534523CE52CE52C25A22983AC907087C2878D7D30D924BACE4DE779456C0CFBD83660DBC13B61AA6B82380425D80FBC30A88031E5249D77AAA0D26E0EEDA9EBB02344CCD2BDC764C20B79A0F3CBD47D550B93827DD2199B78E1A9A4ECE81F7DA25D66AB603E5703D3818373A3AB051DF493E131B0F2CE719EBA083CDB2498F6D5C0E3EA97A1E3
:F0AB900063CDC42D775122FB44184236FA6612C8E3EEF267FB6214F67BD274AA47FC130203010001A36E306C301A06036401010101FF0410636B4253000001007200000000000000301E06036401020101FF04140000000000000000000000ACFE25688A77768C7D302E06036401030101FF0424000000004F0D05FAD6C9E4E53CB6A8E43393428254BA6CCDF449F7E6E872A27497041826303D06092A864886F70D01010A3030A00D300B0609608648016503040201A11A301806092A864886F70D010108300B0609608648016503040201A2030201200382018100504A3DAE0EE42A6D8A3C961E0A6528DFB8B95530BBE2191B03
:F0AC8000E587D919C7F1DDC5999B17334981E083DC93C1AD7BC1C1839FD1F3C26326C2FC119DB8CC8056E27BA6D30C6F54560C27D019B0B7B3F1B59EE18F8E4E7B91B5A0808C6D2FDED8E30F6CE69564C3B210D16C64841D1F6C035992F73966042B1CC57FFA561809810DD01A45A6265B104069594488AD374F3AFCF2892E1808D9C7830C92D4B2FF87BAFCBD561B6FA7E2A1D2B85FC74BCF645F44F1D990966B714501A3DB49A5240A172B6EA69F5C2185A015BDD5B99495F71D4189CFF4104F6FFAEAB7E802D05158A52D0642A6ECA245003CD959AE6AF84FFDF47E138F1AD6ECAEFFFB763FDEE66B6DD91A11B42D69ECB06243
:F0AD7000B23C3AD8773A5430C77CFC658DDFBC26AEA7243DE7ED79D98F55AE55DBDA72ED827EB179CC1AC93921410A7729BFB10ED50F4ADC6ABAF44300A7B2E7BAD8391937C35D51A0F61289D8D6A68B8DF60404CFED9BD33FD9628BE97A93D9A12938ED91AB5CAEB8C2925BC1EA28F72EB1107821F7A0398FB8843030820484308202BCA00302010202044D6D649F303D06092A864886F70D01010A3030A00D300B0609608648016503040201A11A301806092A864886F70D010108300B0609608648016503040201A203020120300E310C300A06035504030C0341524D3020170D3235303733303032353733385A180F32313673
:F0AE600031303930353039323535325A30123110300E06035504030C07436E7443657274308201A2300D06092A864886F70D01010105000382018F003082018A0282018100B15BCB639D31F7F01E7D884EF135674EDCF3F553F9EED61E7F424D1E813BB2E386E9F6BFDA88D76631B6B01F4D5C1A1A4CE08B0053FF0444A9C0E745EA3AD4F28B082C6FA1083156380BFAAEA34C7BEB1B9782489C2DFF576F74D24B824F1CD83DE905A47A5BF61C4245BDEDCAA1202E051EFFBE09AB1B923C5F5109EB58F9B8EBB5828534A632C93E9EA9FE37E25D7410288ECE6696D098F4D1AB4A46915348D68631517A3F1F932668F52AFAA8FDC9
:F0AF5000DD16661C4FA8704DD00A034F81BA35EF436F96C983F7830149C773C5A6EF73328D4FAE2A93D4A29D6CA4CE88A729AA36A646299323839D35895FA396460141B9EF04DD81A2BADD076E5D2EF15E29BC1442F1FBBD0D246065E5A82CEE5B036550BE19CACB9DE998FA83A359F861C9548DBE1ED3B00C67DF15BFC4D388FAE34B8D820C1679CEAEDD717160C130C0B29134873E6740932ABBC035435541D2951B13EFD5025C0152E4FE441335F7D9B835029EEC541A0B707BCB01EA095CA819A8DED222AE1BEDC1F82B6AC2F283697255A1150203010001A38183308180301A06036402010101FF04106363425300000100D6
:F0B04000770000001F020100301E06036402020101FF04140000000000000000000000B8C172E8A91A684B29304206036402040101FF043800000000A287B66EC79E7B947B9E4116CF7329C8CF33EF7E15CF6DB84E087775E5003AB851B1237FA3D91B2448804290B430000000000000303D06092A864886F70D01010A3030A00D300B0609608648016503040201A11A301806092A864886F70D010108300B0609608648016503040201A203020120038201810058783584642DA28F32E04D49220879E5CBE060F90C5099C57298BA892878E5577A0160AD1B202CE2220144B282D877CA800302670B7D64250233D7661E9466AFD8
:F0B13000A7A4923FE32F66CE235A4A5477893C444E1DD31F0BE12BBA694B8FE05C3865D0EA3E02EDE1DCD3D9A4B574ADF9E78E67D9FB410810C63BA120F4A861583FE00AF6F9FF5FEF0D93993344E699B2E487DB9B3BDF72BAE01F48EB7475D40DD84957E874BE6594B96DDE8EC72EFC5899F0CF42B68A14E985E5F6128E889EF1D32274EC1F39D3BA4A18A50B10DEEF133CE88B3B63DCA5BCD9A884618582C5082A6EFF1899E55D50B746D4C30DA35BCA1F0CDB849AA4094EE1C1350C9A19B7CC950DDEE5ADDE813DF7DB166EE659FCCAF5205082E239D3D1FE80FE0B379F8A855D0A56533329CB5D8B37305DC344D19E75DAB05A
:F0B2200009BBF7D0AA9F595A54C0A33B449E508F912C250604EC111EAD7E6B897A50CCF2BF4A47C77C255EE02F9AC65F505110412D1E2A29C24BE8F24284E027DFDA15D760C4E2162F9EB5F0AF483B286E3DD02FFFFFFFFFB4300000780D00003082046E308202A6A003020102020433B449C8303D06092A864886F70D01010A3030A00D300B0609608648016503040201A11A301806092A864886F70D010108300B0609608648016503040201A203020120300E310C300A06035504030C0341524D3020170D3233303531313138333332315A180F32313539303631383031303133355A30123110300E06035504030C074B65793F
:F0B3100043657274308201A2300D06092A864886F70D01010105000382018F003082018A0282018100D7CA1894DD0FF7276F58B72C1C42307D1723061616D07DA2D44DDF6E54204510BD235910E80296AEF47C43C52271A0AFF34FD0D5711445B858F77F50CE824EF6045A8C9BFE95E6AAB96A7C0691E9D0A007B3066289077F4C640C2AF0A632BF53E5A97A3AC3F179A132D454FEEEF52BA4C07EA0265B5EC5E42203BC59BF704D5B62892668A87539503713FEEBA6549645E2BEE662E91606398086DAF2D5D72A11E1280ABB15C002302710AD54BF0C1737A7FE94F7360F22291A6DC81A131BDE05BE5110A203C64EBAFCC9DE5E
:F0B40000E269A813FAD5C192A649098E956452484F396CA12D875A4FEB822DF4FE77422AC20F101FF630CBAA871FDFDD40F1472F20E6C2D33D87B5C4FCD058FBDC56C10CC7FFF5986179401499F0E424377FA1D09A9FE6E1156ED0A90FB4453DC963E40B978ABC7A86A65C8ACE7455C5F74D577A4777037463696266C400431A743EDA3F292CBABE47DB95D7BB048D57D8A76622747CA2A350710C0476ABAF28C5F366BA6FF286FDBC172FF4D6293EC2FB36C10BDB334060EF0203010001A36E306C301A06036401010101FF0410636B4253000001007200000000000000301E06036401020101FF0414000000000000000000007F
:F0B4F0000097DA0B27D589AAA488302E06036401030101FF04240000000094A6D8F63F4334C1E413AC45E52F70C61C977838F693A63CD64FDBB49ECBFE21303D06092A864886F70D01010A3030A00D300B0609608648016503040201A11A301806092A864886F70D010108300B0609608648016503040201A20302012003820181005C7258A83AB01F1CFE2901AEC52557DFEF259280D9B52DD64CF7B17B5331E54C338378651CFEE802B2BBD0C4D23638D4970D51A604A45ABC185DB5CF5CDEBD5C6462F9F749431DFE24FDCFC7CF747E45701FB4E8CC7C93BA5FDDDFCDCA5BFF897FFFC36D14FC04CEEBE89932F2CF158AA9AA29
:F0B5E0008AEEC5419B22475AAB203588E92B1513C699E0CE99835116E10F5327BEF2174D51064603C50A5967CE6D53EA48DFA687308AD056F6E72762D6E421AB85D8A8D40118F8F97B605E80E19595F7912821026606D1240B3FB6AA7F35682D707BD40395A369E39CC7EAD32CD72B054FE4C7000217167AC05BEE267B04DE42DA9152DDD986296682F27B1AA38D034F82A9D5DBE796F572AC249CDEDE681CB645E1E93F2A5C22C1F2836AC452301DAAF7D6EC793B33C9E78F1D6E9DFAEEC74A393BAA733508ED68B5C4C9658CFC9EFE397CF6540751731DCAB144C6E44E0F7A0FD8C3420D647629B7B2EB6FBCC713CE05817D7AA2
:F0B6D000FF6F0C9FCF59372389C670FFD8CD32BE7992964F0E9603F40D650AC7985D3082046E308202A6A00302010202045C8DAD5D303D06092A864886F70D01010A3030A00D300B0609608648016503040201A11A301806092A864886F70D010108300B0609608648016503040201A203020120300E310C300A06035504030C0341524D3020170D3233303531313138333332315A180F32313539303631383031303133355A30123110300E06035504030C074B657943657274308201A2300D06092A864886F70D01010105000382018F003082018A0282018100B3CF266C0189C911242BA7EE1CE904155487C4B87D51D5162AC6
:F0B7C000825B427CA4A884888972E0E0EC0F31462BEADDE6272B637D77753B98C03402046B9CB79A354DBDD8FA7C0654FDED7F468B7E3BD05CED36407DFA52D1A6C4665C12489E6EB006404AC06CE0D06F2BA5AB2F263A0EB70855DF481D18B335C79D265984A39097607DCD73DD54CF58C0EB0D9EEB81440E7A9CE54AB3CE32E7AE63512EE654C5020D83357B8FF95D5138A20D9B751FB4210C4253EA37C90641365C4E6A284477FDA38918D42AF5FB285F3FDDB6184E77747D87EE0D5CFD9A5734DC3CA762D52EE5F1F0373AE69025413D9A303CF9DF2AC2AF69067DB586D0CE818FAD58C8D4258F7047E8AA3C7157896C480E3F
:F0B8B0006E3337E087B0E8DCC2EF2571D46921B7F01D397495621F078291BAC76F21E93847446270287F34A234BD39DE7A239707A4631A1D717AA3E50CE91AABB5D9FE7172BF8C3148766215321E789C4E206F7035CF01888B52444BB526A972B6A527F18A169B7A18B3D253F25ED6252657CD86B5A39283902CE90203010001A36E306C301A06036401010101FF0410636B4253000001007200000000000000301E06036401020101FF04140000000000000000000000B63CD5BFFEF2EAD9ED302E06036401030101FF04240000000002AD96A56826F95BCA7337440C44E779998C211C41AD62DEB5E466FC6689AA74303D06095B
:F0B9A0002A864886F70D01010A3030A00D300B0609608648016503040201A11A301806092A864886F70D010108300B0609608648016503040201A20302012003820181005C556A34C1916E80227546C6D37808C5684CC6EDF8F58D46E866DE45F11591D784514149F02A596DB75DC4D024A17A06E89521BF9BB4008F06B09A174CB3AF95BF84477BFFCA8E0C5036346E8BC7587C5F6FB68178DAD4F6F43137986510D5DD3B07EBB704FCBEA08943129FFA4B1F06773BDAED506152F6D96692E7A4915FA7111CE7A2BD7DC06E2777391FCDD007F6D99D3190015DF668F59896CD3FAAD064C9C08F015761ADFCBF6793DE9386F356DD
:F0BA90002012379FCFD7535E11E5494968B4DA2649A6F9174BD079AD935761B8766104E45B3CD17B027F3A32EBCA72FDA210A624CF99C7D0ED8E310752041D28B1C68F7908815467AB11940F2F4DE9A89CB33F72DD5C3AE7172EDD4610EA5A2CBD07311CE9F124A021B23D49ACBA0036C68A3D9AAFA85E6B5B07FFAC306068B17F8D65652E6BAB5C38948CFC4B4C95B696038F021BB66234246D19C3F63D0E6ED5D7CA3BD68E02CDF537E11D13B73657D3F917D4D45FC60A750ED9E11B2E88D8200577105471BE4E641FAAEEB8D8A27F51EBCC9A30820484308202BCA00302010202045808D7D4303D06092A864886F70D01010A3C
:F0BB80003030A00D300B0609608648016503040201A11A301806092A864886F70D010108300B0609608648016503040201A203020120300E310C300A06035504030C0341524D3020170D3235303733313131323035325A180F32313631303930363137343930365A30123110300E06035504030C07436E7443657274308201A2300D06092A864886F70D01010105000382018F003082018A0282018100C5DC91BCC325846CCA66CF7B42ABEE869E74E5B1684FD4231482E7D42C3287E1B7455B260D1461B38155E332923DAF32DAE793550B6AF7561359ABD6565CC2904B8A837444CB7DF3661BBB7C3FF538749DDE8C481D3A3822
:F0BC7000D8C87BDC34D1062C430AA7BEA322F7B0FB9B03B7BAE57284AEC2CB94EEDE578F1476F18AF67C0736182466FD56D208E532A781EA58F61CB5E6BE43DA1F0E3513CC2957AE0D60261803D24B9E7420917FF2925A250F6BB75E9C825F04DC0FDA2C9FAEEED2EF4F213803471463945DD16A3019A8E6AB0C7029584971513EDD7A928D0CB97EDEB6A155FE6DC7C4A3956839C27FC008AF2144E6109C204FE91DC1E0D20D30DDA401D26AB8EC53EB2FE93BFD622D450C89E7537A6907B0E19F7C32D653B691DA0147C211D45ABE87030E8F8798AEBD9E739C182A612D53AE785A4BA8754448D95363C646D4C04E77EC1F31FA1C
:F0BD6000DFD7166064CCB32F0EE1FB0E811AF353AABE671F9759C23604581F417458336B1FE02352ECEE952AA4FE5864EB07D21ACC26FCE0BAB6903F8F0203010001A38183308180301A06036402010101FF04106363425300000100770000001F020100301E06036402020101FF04140000000000000000000000A59C5789E1F086029A304206036402040101FF0438000000003C1B4D69EEF58EDC9BC25C8E1B02237B315365376703CA8A36A11B48AB85A5484B73E50E328C691AFCB042805C31000000000000303D06092A864886F70D01010A3030A00D300B0609608648016503040201A11A301806092A864886F70D010137
:F0BE500008300B0609608648016503040201A2030201200382018100C0CEDEAF2B9D721FB2549E3E869AFC06CADCDB0F9E9C9E5FFE1BC092DC7B5AC7BE6DC3C5EE03A54EAD9E77AA11157614EB013B4BA7857EB4217A38CE58E87620164A77BAAB6896562118627DBDE87D1A2151C54FB439E9B89E9C60F858A4899EE268088BBC3EB0B8D084B34366FD023A8E57345B7B9C50E5392B76C1B48845EDF560BD77F5BC03E2542E37E01E1DA2D7E7BFE7BD6489D8655546CFF7D9187AA16ED545992ECDB56967F1C5B578C9619A99BEAB54E0534EB7248680931941E84C56B34E9178396383909DA8813FCC4A1138AE75BC47B15B0076
:B4BF4000530C9D370C7AF4B1F14FC5F820D36CBA778E396AF7ADCA4EBB187E10927F283DFBEB7D4838FAFDFD2BFEA412FEDE992CFEE6462C50F514A244D882B7B2F0615F5F54D9F1A98505CCD4A0E75623954111075A0EA59F5083CDC32DBE5B9D359807E0D51ECF5273270291433EA8D75FF5E9E0BAF84EC218CBE17A78525EBF393B3ECE498DCEA07E242A29E16A5DC96F38C5527AD5426BAFEF72FF68FB7E203CE7E3BFC2F2862BDBE0B0FFFFFFFF5C3100000000000004
:02000004804238
:420000004252434D6366675300000000320000000101041892000000030693760A0A905500011C00804280000000000000000000000000000000000000000000000000FE0000CD
:F08000004252434D6366674400000000586200002D0184000400000034010000B430000000000000340100005C310000B4300000340100001000000010620000FE0000000000000020620000A830000054804290010000004252434D6366674400000000963000000301FB0180D2301021F0040143F80C10F4F438BE43E880F0C10205D503F12F0141E880F1F8F423BAF8F42BBA7047704741F23800C4F6E47003684FF4FF6000EA533200EA5311002A10461CBF4020C0F2E000002914BF002070476FF0070000EA5350002808BF40F24C70002A18BF1046814224BF00207047401A41EA0040704770B540F21836C4F6E476D6F8D0
:F080F000202D0C46054632B3FFF7CCFF014680B2402804D1A5F18402372A20D8743DB0EB850F4FF0000015D80A0C12FA81F1AA008A4228BF70BDFBF4B1F84FF0044065F310203461306000BF30680028FCD4FBF499F8012070BD0E2D01D10E25EBE7002070BD70B504460120012504F571FF10F54BF9010301FB0177D330102010F56AF910F546F90826C4F6E8762046756010F58BF80320306070BD46F2D041C9F241010868002804BF01300860EFF3948C1CF0020F07BFEFF3888C0021EFF3898C01211EF0400F08D04FF6FC10C1F230000068CCF818002EF0500EF3F43AB8F3F42AB803B446F2D041C9F24101086800280AD145
:F081E00000F10100086003BC01B540F20000C0F20100F3F4A7B803BCF3F4AAB841E8C0F2930209D5CB1C43E8C0F39A4204D100F5B8700860002070470320704710B528B1044600BF00F069FC013CFBD110BD70B5342604460128C4F6E67601D0032C12D3042C0CD147F20075C0F20105284600F03FFE07F593FB0020294607F51CFE306840F00301FB016ED4301002003060022C03D3306840F0040030E007F52CFE07F5AEFE40F2E814C4F6E7742068012161F30100206056F8280FD72161F307003060052005F565F9206820F003002060052005F55EF93068D32161F307003060282005F556F93068F32161F307003060052031
:F082D00005F54EF93068F02161F30700306070BD0020C4F6E77000BF01688907FCD53020C4F6E670016821F00201016070470000B0B542F28960C9F24000407840F2E0145C250A28C4F6E774C4F6E6751AD107F5AFFB4EF6FF51C0F2020188429CBF002007F570FAA068C0074DD16068292240F400206060206840F0804141F6C040C0F201000EE0A068C0073DD16068142240F4000301FB0165D53010206060206820F0804148F66060C0F2080021604CF20051C0F20401A160E16840F2FF1399431144E16021696FF313010844206107F5B6FA2868F32161F307002860282005F5E4F82868D32161F307002860052005F5DCF832
:F083C0002868D72161F307002860282005F5D4F8A06840F00100A060052005F5CDF855F82C0C800748BF07F591FA2868572161F307002860052005F5BFF86FF0950500BFE069800405D4012005F5B6F80135F7D306E0A06840F00300A060052005F5ACF8A06800F003000338B0FA80F04009B0BD40F2E010C4F6E770006840004EF60060C0F202005CBF47F20070C0F20100704700F002F8F0BD70472DE9F04F85B042F20301FB015CD630108451C9F2400109680546049107F548FB834610B1BBF1030F25D107F505FB4EF6FF51C0F202010922884288BF0A222F46042D98BF04274EF600610A2D88BF1746C0F2020146F2A82241
:F084B000C9F241028842177015D34EF6B560C1F201003844013810210A24009114E02F4646F2A820042D98BF0427C9F241000A2D88BF092707704EF6AC60C1F201003844002101380091092440F2580AC4F6E77ADAF800100078C1F3031221F0FF08824238BF024640EA021907F5BAFA46F2C0410546C9F30210C9F241010968039002AA03AB284600F097FD08B1029890B100F0A9FD039070B101AE314600F03EFD28B10198B5FBF0F0B0F57A7F03D80398010301FB0153D73010380390F1D129F07000039940EA080040EA0110A7420DD142F60C21C9F24001097842F284540129C9F240041BD140F4E04026E042F28454C9F2E3
:F085A000400421D2DAF80010C9041DD542F60C21C9F240010A78DAF80010012A0ED121F4E041CAF8001020F4E0400DE001054FF4A04158BF4FF48051084305E021F4A04120F4A040CAF80010BBF1000FCAF8000010D1DAF80400009920F010000843CAF80400DAF8040040F00300CAF80400012004F5BAFF20680499884202BF012005B0BDE8F08F04F532F970B549F6BC4CC8F2400CDCF8001044F6D352C1F26202A1FB0235AB094FF47A7503FB15110646080400F5F870A0FB02018B0900210F240301FB014AD83010002023FA04F505F001058D40013128431029A4F10104F4D1DCF80010A1FB02124FF0FF3101EB92116822D7
:F0869000C4F6E7721160506007F545FA042E18BF002805D10020314607F590F938B970BD07F539FA012802D107F541FA68B307F59EFC07F5EDF901460320032407F5F7FB07F5E6F947F20071C0F20101884208BF0224204607F5FFFB46F2A820C9F241000178022007F5D8FA49F6F030C8F24000012101700A2004F543FF112006F51EFE1120BDE870400EF53BBA304607F58AF8C0E742F28C53C9F240039A69824204D85B69C3EB4202824211D842F6A002C9F240021268824208D8084442F69001C9F2400109680138884201D90020700301FB0141D930104701207047000042F23070C9F2400042F22C714088C9F240014988CA
:F087800000F00F0201F00F00511C81420CD200224FF0010C0CFA01F30131884242EA0302F8D122F47C4000E000205021C4F6E6710A6882430A600A6842EA0040086070471820C4F6E670016841F20202C0F2040262F3570101607021C4F6E7710A681F2060F3184240F22C400A607047B0B540F6F875C4F6E7750446B0F5203F286828BF4FF4203420F001002860462001F018FA0020C4F6E8700460462001F011FA286840F001002860B0BD40E880F1CA0227D500F11B0242E880F2914221D14FF6FC71C1F2300149F66833A1F50472C9F240031A6049F66432A1F50071C9F20301FB0138DA3010400211600160186842F26851E4
:F0887000C9F24001086042F26C50C9F240004FF40471018001207047002070472DE9F04F8FB042F28457C9F240073B68154642F6B0020E93C9F240021278AAB3044640E880F0C20230D504F1270242E880F290422AD145E880F0C20226D505F10F0242E880F2904220D146F2C940C9F2410000786FF00042002804BF45F0805544F08054A06842F2BB7849F660399042C9F24008C9F2400977D098F8000088420ED14FF0000B4FF0010A2CE0002039680E9A914204BF0FB0BDE8F08F03F5BCFF99F8000028B10AAA4FF00E400221F9F47FFB00F0E3F94FF00E40FAF44DF8207C4FF0010AC00789F800A002D14FF0000301FB012FE3
:F0896000DB30100B09E004F1110106A8102210F5C2F94FF0010B4FF0000A0AAE304629461022102510F5B7F9D4E90221062A15D142F2BC70C9F24000036849F66830C9F2400000680DF1180C2022CDE9002CCDE9026004954FF00E4006220DE049F66830C9F24000006806ABCDE90053CDE902604FF00E4000230495CDF814B000F576FBBAF1000F09D106AD284600F07FF904F111002946102210F57EF90FF55FFE99F80000FF2188F800108BE770B584B042F28454C9F24004206849F60041039040F60070C8F24001C8F6B6700968026802F00F02914246D1006800F00F00022841D142F2E076C9F24006F06A012140F224456C
:F08A5000C4F2000561F3040028600301FB0126DC301002A801A900F026F918B102986860019806E0B06820F01F006860706920F01F0040F00100A8600020C8F63070E8604FF6FD70C8F63F7028614BF68C50C0F20B00686141F6C150C0F20E00A86142F63450C0F20700E8610B3028624FF62C40CFF6FF70295821F00201295020680399884204BF04B070BD03F5ECFE2DE9F0470FB400F014F804460FBC14B12046BDE8F08704F53DB9697A3144203969724FF67C41C1F2300187F85EA004F5C5B901393F290DD840E8C0FC5FEACC2208D5084440E8C0F0844503D143E8C0F0810201D403207047D91C41E8C0F1401A18BF0320C3
:F08B4000704740F6FF704FEA900000B1FBE77047704742F28C50C9F2400301FB011DDD301000416949F6E8328069C8F240029288C1EB40001105A0F5C00000EAE170704701F0A4FB0099088805F526B9B0B5054600284FF000003CD00C46294311F01F0137D1FFF7DAFF00F10070A84284BF0020B0BD46F2A02146F2A422C9F24101C9F24102002C4FF001000D60146008BFB0BD4EF6D853CEF2000307251D600D685D600D6814682544013D60F304059D600B684FF6FC75CEF6FF7540F208142B40C4F2000423600968126811440139294003316160B0BD01B400F083F801BC01210CF5DEFCFFF762FA05F5B4BC70B549F6E830EA
:F08C3000C8F240008088000504D44AF20050C8F240001CE042F28C55C9F240052E4656F8140FC46804F5E8FC0301FB0114DE301018B1012819D105F118063068211801F1D07000F5887001F1D07101F50471020618BF21F0FF00016839B10A582AB108441058002818BF012070BD002070BD80B542F28C50C9F240008068082250F81C1C08444FF61071C1F230010FF5DDFFB0FA80F0400980BD4FF00002C8B1C1B149F6E833C8F240039B8800221B0502600A600ED549F60842C8F24002D2E907321A44026042F28C50C9F240008069012208601046704742F28461C9F240010968D1F860240260D1F864244260D1F86824826070
:F08D2000D1F86C14C160704742F28460C9F2400000680121C0F81018C0F82018C0F8E4170021C0F80C1B704780B509B38446012B4FF0FF3004BF410301FB010BDF3010E8C0FE1EF4800300D080BD0A44013A42E8C0F39E4518BF80BDBCF1020F0ED0BCF1010F09D141E800F042E800F1884208D140EA0E00C00204D5002080BD5FEA8E20FAD44FF0FF3080BD40F29C20C4F6E770016821F003010160704749F6B032C8F24002116944F6D35301FB00F0D168C1F26203A0FB030301EB9311906840F28C22B1F1FF3FC4F6E77209DDB1F5801F0ADB4FF6FF73C0F20F030130194001E0FF304942C0B210600520516004F5DDBB10B516
:F08E10000C4600F00BF838B120684FF47A7100FB01F02060012010BD002010BD421E092A84BF002070474FF6B412C1F2300202EB800050F8040C08600120704744F6D351C1F26201A0FB0301FB0102E030100101880900F001B800000F280EDD2F282EDC102804BF05207047182804BF06207047202804BF072070472DE0411E0B292AD80FF2080000EB81020120974600F016B800F014B800F01FB800F01FB800F01BB800F01DB800F017B800F015B800F013B800F011B800F00FB800F013B87047302804BF08207047602804BF09207047C02804BF0A2070470C2070470220704703207047042070472168044611F4805018BFB4
:F08F0000012406F529FE06F597BC704780B507F5E8F8012818BF80BD42F28960C9F240000A21417007F507F8002006F5A3FC0020BDE8804007F514B8B0B547F20071C0F2010188425FD140F2E014C4F6E7742068400058BFB00301FB01F9E03010BD5C250020C4F6E67506F589FC6068142140F400206060206820F0804020604CF20050C0F20400A060E06861F30800E060206948F66061C0F2080161F3130020612868F32161F307002860282004F515FB2868D32161F307002860052004F50DFB2868D72161F307002860282004F505FBA06840F00100A060052004F5FEFA4FF62060CFF6FF7021588907FCD52868572161F393
:F08FF00007002860052004F5EFFA9625E069800406D4012004F5E8FA013D2806F6D1B0BDA06840F003010520A160BDE8B04004F5DBBA072884BF002070474FF6DC12C1F2300252F8200008600120704710B5A0F1010CBCF1020F02D200231EE010BD03460F284FF00301FB01F0E13010000021DCA3F1030EBEF1050FF4D80FF20C0303EB8E040123A74600BF00F00BB800F010B800F006B800F017B800F002B800F015B8E0E7BCFA8CF04009136008600120D9E70223F6E7102B0AD0182B0AD0602B18BF10BD0723EDE70323EBE70423E9E70523E7E70623E5E78446481E604504D2BCFBF1F000FB11C109B10020704711461A4659
:F090E000FFF7B0BF4FF47A7C00FB0CF001FB0CF1FFF7E9BF0720704742F28960C9F2400040780A38B0FA80F04009704707B5284600F00FF8002807D1BDE807402046F2F4E7F94FF00000B0BDBDE8074006F550BD704770B584B042F28455C9F24005296803915821C4F6E7710E686946FFF76BFEE0B1000301FB01E7E230109C06F5CCFC014602AA01AB2046FFF7B1FF00284FF0000010D0029901290DD0019906F007028A4208D2009846F2C041C9F241010860012000E000202968039A914204BF04B070BD03F5A3FB0938C1B2092988BF704740B24FF66411C1F2300151F82000A021C4F6E7710A68104008607047082818BF4A
:F091D00001E006F53ABDFFF7E6BF70470938C1B2092988BF704740B24FF68C11C1F2300151F82000A021C4F6E7710A6810430860704742F003020A60082888BF01E006F535BDFFF7E3BF704700F001B87047B0B5582504460128C4F6E77510D0032C14D106F562FC48F2A061C0F201010022884288BF01222968100121F4805103E0286840F40301FB01DEE3301080510020296000E00020696821F0100108436860686864F301006860B0BDBDE8B04000F002B87047000010B50024C4F6E77420688007FCD5012049F2182106F541FE012006F552FEA06D40F480510520A165BDE8104004F59EB93424C4F6E67406F5DABE7047E8
:F092C00008281EBF042800207047002940F29C21C4F6E7710A680CBF22EA000010430860012070472DE9F04383B042F28458C9F240080C46D8F8001005460020582602912070C4F6E7762870716801F0030103292DD106F5F5FB44F6D351C1F262013668A0FB01018F09F00406F40059384608D406F0070001A9FFF780FE18B10198B7FBF0F02870B9F1000F08D1C6F302106946FF0301FB01D5E43010F773FE18B10098B7FBF0F72770287820B12078002818BF012000E00020D8F80010029A914204BF03B0BDE8F08303F5B9FA80B506F5BDFE0A21002808BF0921084680BD032884BF002070470FF2080202EB8002974600BFF7
:F093B00000F006B800F017B800F008B800F00DB88C20C4F6E7700068000C11E08C20C4F6E7700068C0F303300AE08C20C4F6E770806BC00804E08C20C4F6E7700068000E0870012070472DE9F04385B042F28459C9F240090C46D9F8001007460491FFF73FFD05462046FFF73BFD804606F574FB0C2D29D044F6D351C1F26201A0FB01018E0903AA02AB30463946FFF75FFED8B1B8F10C0F06D001AA6B4630462146FFF70301FB01CCE5301055FE88B14FF47A70B8F10C0118BF04FB00F146F2C040C9F2410001600220294606F54EFC012000E00020D9F80010049A914204BF05B0BDE8F08303F537FA022818BF70478C20C4F67A
:F094A000E770026801F00F0122F4704242EA013101607047012818BF01E006F546BEFFF7EABF704700F0F7FE0120314607F58EB900F0F1FE0324022007F54CBBFFF754FC05F550BF0BF572FB00F0A9FA80BD704710B54FF26060C0F2300040F080514DF2802046F2A02246F2E043C1F23000C9F24102C9F2410304F5C1F946F2C02040F21421C9F24100C0F200010FF5FEFC01F03FFC42F69004C9F24004206842F289620921C9F240025170A8B104F591F8420301FB01C3E63010F28C51C9F2400101F11802002808BF01F1140240F21441C4F2000110680A682368101A1844486040F60070C8F6B670016801F00F01042912D09E
:F095900049F60041C8F240010968026802F00F02914208D10168090705D00168006801380840000710D0FFF760FB012804D0FFF792FB012818BF10BD49F60840C8F2400090F83800032800D110BDBDE8104004F53FB840F6C041C4F6E3710860704740F6CC41C4F6E371086070470A2888BF704740F6D042C4F6E37252F8203061F3020342F820307047172888BF704740F60072C4F6E37252F8203061F3080342F8203070470A2888BF704740F6B04CC4F6E37C002918BF0121DCF80030012282400301FB01BAE7301001FA00F0934310401843CCF800007047172888BF704740F6BC4CC4F6E37C002918BF0121DCF800300122EA
:F0968000824001FA00F0934310401843CCF80000704740F6C040C4F6E370006880B270470A288FBF002040F6D041C4F6E37151F8200098BF00F0100070470A2884BF0020704740F6FC52C4F6E3720121126801FA00F01040704740F6BC40C4F6E3700068704740F6CC40C4F6E37000687047172884BF0020704740F6F851C4F6E3710968012202FA00F00840704702290AD0042911D0032917D10A2826D141F208014FF0080C15E0811E072988BF704740F608014FF0000C0CE0811E082915D240F608014FF4006C04E002280ED24FF0080301FB01B1E830100C082140F6D043C4F6E37353F820208A4301EA0C01114343F820104C
:F097700070470A2888BF704740F6D042C4F6E37252F82030002923F0200318BF203342F8203070470A2888BF704740F6D042C4F6E37252F8203001F4C56123F4C563194442F8201070470A2888BF704740F6D042C4F6E37252F82030002923F0100318BF103342F8203070472DE9F04381B04FF66019044600204FF001080126C1F23009002500BF19F8000008FA00F7274204D000F00CF8002818BF3D430120F1074FF00006EFD1284601B0BDE8F0832DE9F04F81B040F6044978251824C4F6E379C4F6E775C4F6E674D9F800B02F686669226849F6F83A014604284FF000000301FB01A8E93010C8F2400A09D0012932D14FF0E3
:F0986000000800928AF800800820BF2110E09AF800808AF800004220009205F5AFFD42200DF5CEF940F60449C4F6E37910207F212BF0FF021144C9F8001001213A4661F3010226F0180108432A606061206840F001002060C82009F5A7FA9AF80000009A8AF80080226066612F60C9F800B001B0BDE8F08F49F6F831C8F24001002818BF012008707047B0B542F6B000C9F24000007801284FF0000025D146F2C941C9F24101097801291ED149F66430C9F2400001680020B9B146F2CC45C9F241052A68002A08BFB0BD46F2C024C9F24104084621460FF51CFA0020286020464FF400710FF503FB0120B0BD10B5420301FB019F2F
:F0995000EA3010F6B001C9F240010978044601294FF0000020D146F2C941C9F241010978012919D1B4F5007F4FF0000014D849F66431C9F240010968002908BF10BD46F2C020C9F2410022460FF5EDF946F2CC40C9F241000460012010BD80B503F574FE42F28C51C9F2400130B101281CBF002080BD01F1140001E001F118000068A0F5C00080BD03B4144600F008F820B903BCB4F5807F0AF57EBE03BC10BD40F60073C4F6E7731B688446D8074FF0000000D17047B0EB5C5F03D141E8C0F0830201D401207047033141E8C0F188424FF00100EED149F68031C8F240010968FF2988BF7047FF2A49F68432C8F2400212684FF026
:F09A400000004FF000014FEA92020301FB0196EB3010C8BF0121402A88BF01200840704709790BF5CBF800F002F880BD704746F2B420C9F241000078012818BF704740F66800C4F6E570016821F00101016070471820C4F6E47041680022C8F2E00211434160016811430160704700F002F810BD7047B0B542F6603CC9F2400C42F2B86E4FF6AC43DCF80000C9F2400EC1F23003CEF8003042F2C8634FF6C051C0F3C142C9F24003C1F230015420196042F2C06158604FF65450C9F24001C1F230001B23C1E9000342F268604FF600212A24C9F24000C1F23001016042F2786144604FF62030C9F24001C1F23000CEF8044042F29A
:F09B3000706508604FF6A82040F670545723C9F24005C1F23000032AC40301FB018DEC3010F6E3744B6028606B6020D0012A63D10520C4F80C01606D062140F4402040F0010060656068C0F2001060602068C0F206502060D4F8040161F30700C4F80401D4F8080120F0FF00C4F8080144E07F20C4F80C0140F20D60C0F20C006065E06D40F2052161F31720E0656068C0F200106060A06D61F3172000F5C020A06520680421C0F206502060D4F8040140F20610C0F20200C4F80401D4F8080140F60010C0F60820C4F80801D4F8100161F30F20C4F81001D4F8140140F2067120F47F40C4F81401A06861F30F00A060E0684FF453
:F09C2000417161F30F00E0609CF80100800707D49EF804104FF6AC40C1F230000AF5E2FFD4F89C0040F400400301FB0184ED3010C4F89C00BDE8B0400AF504BD46F2B421C9F24101087070471820C4F6E770006870470FB500F005F8BDE80F402046B0BD70471C20C4F6E47001684FF6FF72C7F61F72114001602420C8F67070016821F0900101600821C4F6E771086820F480724FF000500A600AF58EBFA060C4F6E576D6F8080240F001000BF597B9704740F61440C4F6E3704FF07F0101602C20C4F6E6700BF5FDB9704710B5044605F5CFFD4EF60061C0F2020188420CD047F20071C0F20101884208D04BF6803188420CBFB2
:F09D10001020002002E0402000E0202000FB04F018B100BF013800BFFCD110BD2DE9F041B8B140E8C0F1CA0213D500F10F0242E8C0F291420DD1460301FB017BEE3010F2C641C9F241010978012906D10368D90604BF42685FEAC26103D000210846BDE8F081D0F808E05FEACE6104BFC4685FEAC461F2D10BB9002AEFD1BEF1000F06D05BB946F2A021C9F241010D680CE0002B4FF00001E2D0002CE0D146F2A021C9F241010D68AB42D8D346F2A42CC9F2410CDCF80070AE454FF0000604EB020128BF0126B9424FF00001C8D82F4404EB0E08B845C3D8BEFA8EF56D093543BED0D618BE42BBD84AB144B19E45B6D001D9B6452B
:F09E0000B3D3734501D94345AFD342F60D22C9F240021178002940F20041C4F2000103D00B6823F008030B604EF69453CEF2020300271F604768082677B15E60D0E9007606257C1E65F30301FB0172EF30100407264426F01F0646F11206DE6009269F60C7686FB15E60D0E9027003267D1E66F30407284420F01F0040F11200D8609F6007201860107818B1086840F008000860BFF34F8F49F6004240F60070BFF36F8FC8F24002C8F6B6701268036803F00F039A4212D1006800F00F0002280DD146F2A020C9F2410002688A620068DCF800201044013840F00100C86240F20810C4F6E070016841F001010160016841F0010141
:F09EF000016001213EE710B546F2C64CC9F2410C9CF8000001284FF0000018BF10BD002246F2C441C4F6E072C9F241011368097861F31243136046F2C843C9F2410311681B7863F3155146F2C7431160C9F2410311681B78630301FB0169F03010F39751116040F60C01C4F6E07146F2C543D1F800E0C9F241031C785FFA8EF343EA04230B60D2F8003843F00043C2F80038D1F88030DBB2C1F880304B6F23F000434B678CF80000D2F8080140F00100C2F80801D2F8080140F00100C2F80801012010BD2DE9F04381B008B3044640E8C0F0C1021CD504F1170141E8C0F1884216D146F2A029C9F24109D9F8000000284FF00000B4
:F09FE0000DD046F2A428C9F24108D8F8005035B1FEF703FE2844B0F1807F03D9002001B0BDE8F0830025C4F6E075286846F2C44120F0004028602868C9F24101C0F3024049F6E8370870286846F2C841C0F30150C9F241010870286846F2C741C0F38150C9F241010301FB0160F1301008702868A17AE27A61F31240237B28602868C8F2400762F315502860286863F397502860B88810F4006004D106F5CFFAB88800F4006040F68007C4F6E077396841F001013960396841F010013960396841F0800139603968627BA37B62F3CF31E67B3960396863F30E313960396866F39E7139603968228A62F31D413960D9F8001021F0B4
:F0A0D000FF01B960D8F80010C1F1000121F0FF01F96030B1FEF78DFD404220F0FF0047F8740C57F8740C46F2C541000AC9F2410140F2050C08700220C4F2000C386200200CF1E602F8623A643A6CE37822F0FF021A44A67CE17C3A644FF400324FF480137A64B864C7F84CC03A657865BB65BB6D66F3040301FB0157F2301003BB65BB6D61F31143BB65B96D237D63F31551B965B96D637D63F31C71B965B96DA37D21F0004141EAC371B9650CF133013966396E237921F0FF01194439667A66B866F8663A6778673968012241F0004139602968032341F00041296046F2C641C9F241010A70D9F80020D8F80010002A114463F39F
:F0A1C000040242F60D23A1F12001C9F2400321F01F07197818BF01371237002940F20041C4F2000103D00E6826F008060E604EF69456CEF202063060082070600720F760B2603060187818B1086840F008000860BFF34F8FBFF36F8FD5F8080140F00100C5F80801D5F8080140F00100C5F808010120ECE640F6C040C4F6E370016841F002010301FB014EF3301001607047B0B50C460546FFF7F2FF35B140F20D20002C08BF40F20D4003E0002000F007F8082040F6D441C4F6E3710860B0BD40F6B041C4F6E3710A68002822F0020218BF02320A60704780B540F2400CC4F6E47C0CEB104E00F01F03C0F3451099409A40DCF839
:F0A2B0000030CCF800005EF8400C0A40884310434EF8400CCCF8003080BD4021C4F6E47101EB1042C0F345100B68086052F8400C0B60704740F6C040C4F6E3700068C0F34000704740F6FC50C4F6E3700068C0F34000704740F2A820C4F6E770062101607047704749F6FF7301EA030141F441410CF58EBC7047C16B043902299CBF0121C1637047074603F590FA00F002F80CF50C0301FB0145F43010BF42F60D20C9F24000007838B140F20040C4F20000016821F0080101604EF69450CEF2020000210160BFF34F8FBFF36F8F7047081F40F001005060FEF7A9FB0DF51EB949F68531C8F2400142F61800C9F2400001F1CE02D3
:F0A3A000C0E902124EF69451CEF202014FF48842CA6201224A6082688A60C268CA6007220A6049F6004140F60072C8F24001C8F6B6720968136803F00F03994242F60D21C9F2400109D1136803F00F03012B15D0126802F00F02082A10D041F60062C8F600621268920709D401220A7040F20042C4F20002136843F008031360032242F2F323C9F24002C9F24003C0E900234EF69452CEF200024FF48843D362002353600301FB013CF53010036893604068D06007201060BFF34F8FBFF36F8F087838B140F20040C4F20000016841F004010160704742F2287046F2B82146F2BC22C9F24000C9F24101C9F241020968026042F2A3
:F0A490002470C9F24000016070470FB5012002F55FFE4FF0010046F2D041C9F241010860BDE80F4049F6E8310DF53ABF40F6CC01C4F6E571884207D040F63041C4F6E37188421CBF002070470068704740F6CC02C4F6E572914207D040F63042C4F6E372914208BF086070470860704742F6B000C9F240000021017046F2C940C9F24100017042F2BB70C9F24000FF21017070470020704710B5014600284FF0000015D042F6B004C9F2400422787AB90846FE03012533F63010F7E7F901281CBF002010BD06F576F846F2C9410120C9F241012070087010BD000003030B70617463685F6261736500030106AA9B40800000030157
:F0A5800006A89B4080000003010880284090A06241900301087C284090E06441900301086426409080D2301016030200000301840660F630007FE97FE94FF2D15CC1F2300C41E17FE97FE94FF2B15CC1F2300C3EE17FE97FE94FF2533CC1F2300C33E17FE97FE94FF2F93CC1F2300C30E17FE97FE94FF2E93CC1F2300C29E17FE97FE94FF2413CC1F2300C1EE17FE97FE94FF2813CC1F2300C17E17FE97FE94DF6557CC1F2300C10E17FE97FE94EF2B10CC1F2300C09E17FE97FE94FF2CD0CC1F2300C06E17FE97FE94FF21B0CC1F2300CFFE07FE97FE94EF6616CC1F2300CF8E07FE97FE94DF6495CC1F2300CF1E07FE97FE94E9D
:F0A67000F6351CC1F2300CEAE07FE97FE94EF6292CC1F2300CE3E07FE97FE94FF2156CC1F2300CDCE07FE97FE94FF2F15CC1F2300CD1E07FE97FE94EF69D2CC1F2300CCEE07FE97FE94EF63B2CC1F2300CC7E07FE97FE94EF6F72CC1F2300CC0E07FE97FE94EF2735CC1F2300CB9E07FE97FE94EF2694CC1F2300CB2E07FE97FE94EF2195CC1F2300CABE07FE97FE94EF66F0CC1F2300CA4E07FE97FE94EF6F10CC1F2300C9DE07FE97FE94EF6CF0CC1F2300C96E07FE97FE94EF6131CC1F2300C8FE07FE97FE94EF61F0CC1F2300C88E07FE97FE94EF6050CC1F2300C81E07FE97FE94EF2677CC1F2300C7AE07FE97FE94EF29F3D
:F0A760007CC1F2300C73E07FE97FE94EF24F7CC1F2300C6CE07FE97FE94EF2F77CC1F2300C65E07FE97FE94EF2837CC1F2300C5EE07FE97FE94EF2CB7CC1F2300C57E07FE97FE94EF6470CC1F2300C50E07FE97FE94EF25B7CC1F2300C49E07FE97FE94EF6530CC1F2300C42E07FE97FE94EF63B0CC1F2300C3BE07FE97FE94EF6D53CC1F2300C34E07FE97FE94FF2196CC1F2300C2DE07FE97FE94FF2993CC1F2300C26E07FE97FE94FF2CF3CC1F2300C1FE07FE97FE94EF2454CC1F2300C18E07FE97FE94DF6677CC1F2300C0DE07FE97FE94EF6915CC1F2300C0AE07FE97FE94EF69D5CC1F2300C03E072B601B5E0470BE07243
:F0A85000B601B5E04709E072B601B5E04707E072B601B5E04705E04FF000004FF000014FF0000262B682F3008CBDE80050744700BF01B5E0470BE000BF01B5E04709E000BF01B5E04707E000BF01B5E04705E04FF000004FF000014FF0000282F3008CBDE8005074470301C80B60F9301001040000FFFFF9FFFFFFF5FFFFFFEDFFFFFFDDFFFFFF7FFEFFFFFDFDFFFFFDFBFFFFFDF7FFFFFDEFFFFFFDDF0000060000000A0000001200000022000000800100000202000002040000020800000210000002200100000004000000060000000C0000001000000018000000200000003000000060000000C000000002000000030000BB
:F0A9400000040000000600000008000000100000001800000060000000ADDECF5E1000E64FFFAFFAFFD9A33EFE1800E64F0020DFFF3E2008005408E54FFFFFFFFF030200002400E64F2000000000000000F800E74F1000000010000000F800E74F10000000000000000000E64F70707001707070010400E64F70707040707070401C00E64F40000000400000005400E64F0000000700000007D002E74FFFFFFFFF00000000D402E74FFFFFFFFF00000000D802E74FFFFFFFFF00000000DC02E74FFFFFFFFF000000001000E64FFFAFFAFFD9A33EFE180AE54FFFFFFFFFFF1F0000140AE54FFFFFFFFF5A8C00001800E64F0020DF96
:F0AA3000FF3E2008002C00E64FE7FFFFFF080003005C08E54FFFFFFFFF012000000005004000000800000008003000E64F10000000100000007800E74F0300000001000000F80FE74F02000000020000001800E64F0000080200000802180AE54FFF6F0000FF6F0000140AE54FFF0F00007F0C0000100AE54F04000000040000002400E64FFF0006004B0004002406E54F0C000000040000006006E54F60000000200000009400E54FFFFFFFFF11000000A800E54FFFFFFFFF002000009800E54FFFFFFFFF880400002C00E64FA1FFFFFFA1FFFFFF3000E64F01C0000001C000004C00E64F01000000010000001000E64FDDA33ACF
:F0AB2000FEDDA33AFE5C08E54FFFFFFFFF002000006408E54F00010000000000003000E64F1000000000000000000500400000080000000000F80FE74F02000000000000003C06E44FFF000000FF0000004006E44FFF000000FF0000002400708F90000000900000000800E74F00010000000100001C00E44F00000080000000801800E44F0000008000000080D402E74F0000002000000020940EE34F07000000070000003C0AE54F00020000000200000C0AE54F02000000020000003A000124FA582043595735353931334130009C00000000000000000000000000000000000000003A000124FB582000001000E64FFFAFFAA1
:F0AC1000FFD9A33EFE1800E64F0020DFFF3E2008005408E54FFFFFFFFF030200002400E64F2000000000000000F800E74F1000000010000000F800E74F10000000000000000000E64F70707001707070010400E64F70707040707070401C00E64F40000000400000005400E64F0000000700000007D002E74FFFFFFFFF00000000D402E74FFFFFFFFF00000000D802E74FFFFFFFFF00000000DC02E74FFFFFFFFF000000001000E64FFFAFFAFFD9A33EFE180AE54FFFFFFFFFFF1F0000140AE54FFFFFFFFF5A8C00000005004000000800000008001800E64F0020DFFF3E2008002C00E64FE7FFFFFF080003005C08E54FFFFFFF63
:F0AD0000FF012000003000E64F1000000010000000F80FE74F02000000020000001000E64FFFAFFAFFDDA37EFE180AE54FFF6F0000FF6F0000140AE54FFF0F00007F0C0000100AE54F04000000040000002400E64FFF0006004B0004002406E54F0C000000040000006006E54F60000000200000009400E54FFFFFFFFF11000000A800E54FFFFFFFFF002000009800E54FFFFFFFFF880400002C00E64FE7FFFFFFA8FFFFFF1000E64F07000000050000005C08E54FFFFFFFFF002000006408E54F00010000000000001000E64F07000000050000003000E64F1000000000000000000500400000080000000000F80FE74F020000EA
:F0ADF00000000000003C06E44FFF000000FF0000004006E44FFF000000FF0000002400708F90000000900000000800E74F00010000000100001C00E44F00000080000000801800E44F0000008000000080D402E74F0000002000000020940EE34F07000000070000003C0AE54F00020000000200000C0AE54F02000000020000004252434D636667440000000064D3FF7F010000000301BC0124FF301080B584B000200390FFE7039840F28011C0F2000188424DD2FFE7039946F2E040C9F24100084402900298006820F06040019002980068400F8DF803009DF8030028B9FFE702984068019908602DE09DF80300012805D0FFEF
:F0AEE000E79DF80300022806D1FFE701980299496809F57AFB1CE09DF80300032805D0FFE79DF80300042806D1FFE701980299496809F58CFB0BE09DF80300052806D1FFE701980299496809F59AFBFFE7FFE7FFE7FFE7FFE7039808300390AAE704B080BD030124A062419000008002000080000800000000004B8000004B800100000001000000F00EE34F03018403E06441902D98015021EB301075D7013061DA3010912F01503DDD3010B14B013005D53010094B0130E5D43010854C01302DD63010AD500150A5E330100551013015D83010194A01303BD43010DD500150FDE33010E551015039E430107527013029D430109F
:F0AFD00049370150D1DD301025050050DDD330103504005095D3301019040050D9D330101D21013009D43010311F0150A1DC301059200150BBDC3010F91E005081D23010E55C015045E630105D59015039E63010AD44015051E63010BDB8015009F43010FD4D01508FE33010D14D015059E33010B952015029E63010D54901509BE03010B91A01504DD630105D4D0150A1E23010DD5600508DD230100161013007D9301021D401508FF53010A5D40130C9D93010C916013067D3301009850030A9D2301015860030F9D2301059C2015039F43010BDC6015079F4301049BD01309DD93010C1990150EFEB3010F998013049D9301074
:F0B0C00085990150A5EB3010E568015059E6301025A10150EFED301041BD015019F43010B9A00150A7ED301011A2015003EE301006010465E63010FE000000005031000008B14280020000004252434D63666744000000003F3100000301FB01600530002DE9F04385B01646127A99460F46012A05462BD1284639464A4627F575FA00284BD1B86945F6B858C0F20208D0F800C098F80500336898F8001098F804203F784FF0000ECDE900C02846CDE9027ECDF8109028F505FA80BB716898F8143028460122CDF8009028F543FA26E0B86945F69058C0F202080068336898F8001098F8042098F805403F784FF0000C8DE89110F6
:F0B1B0002846CDF8109028F5E3F970B9D8F8100010B11FF54CFE40B9716898F8143028460122CDF8009028F55DF905B0BDE8F08380692022006809BAA2EBC00021FA00F0704700002DE9F04381B00129814631D119F480502ED040F66470C8F2410087F59CFF28B340F6640301FB01570630007640F6907746F23C3440F204080546C8F24106C8F24107C0F20204C8F2001800BF30463946013D01F081F8388854F8201031B91020414667F588FB388854F8201038468847002DEBD129F48059484601B0BDE8F083B0B582B04AF25512C8F2400212780C460A2A05460FD0002001900198C0097C2807D800BF019801300190019823
:F0B2A000B0F57A5FF8D300F0F3F82846214602B0BDE8B0401FF5C2B810B54EF2613C46F6004EC0F2160CC0F2DC2E60453CBF43F2006EC0F26E1EBEFBF0F04FF0080C4FF0000E0F28C8BF4FF0800CC8BF00F00F0E1C68C8BF000924F0880464441C60AEEB5E034FEA5E0443EA0413C0F5807010600B6010BD81B00301FB014E07300049F22C010120C8F6B7718DF80300086048F21000C8F6B7700821016002681207FBD4D0F8F000C0B201B0704710B5FFF7E6FF0446FFF7E3FF44EA0024FFF7DFFF44EA0044FFF7DBFF44EA006010BD2DE9F04184B042F65828C8F24108044648F68050D8F80010C0F25B0049F2000648F23405F9
:F0B3900084424EF2613003914FF00007C8F6B776C8F6B7754FF00801C0F21600009737622F6088BF0921844238BF062100201EF576FF7C204BF6B911C8F63370CBF6BB11016041694FF6FF729143416102A901AA6B462046FFF76CFF01987060029830606820F0610220A8652F60306A40F061003062D8F800000399401A04BF04B0BDE8F0812BF5890301FB0145083000FB0000B0B548F21003C8F6B7734FF0020C00BFC3F800C01C68A407FAD539B3002A18BF01224FF0020C4FF0040E00BF95B215FA81F4B4F5826F0C4688BFC2F582640DB1C3F8F0E0091B00BF10F8012B013C2504C3F8F020F8D100BFC3F800C01A689207F0
:F0B48000FAD50A044FF00002E0D100BF49F22400C8F6B770006800F00C000828F6D1B0BD49F22000C8F6B770016821F02201016070470000B0B584B042F65825C8F241052B68039340F20E43ADF8063001238DF808308DF809008DF80A108DF80B20FFF721FF30B1044600BF013CFFF71BFF2006FAD10DF1060006210122FFF791FF28680399401A04BF04B0B0BD2BF511FB72B64AF200100301FB013C093000C8F24000854600F017BCF0B581B013460446006A02EB82020D4600EBC20004F1240219461FF529FD46F2FC67C8F24107396881F83C00204629461FF525FDD4E902128A4209D10646204600F0D0F860B920463146C4
:F0B570002A461FF51EFD3968002081F83900C1E90900C1E90B0001B0F0BD000010B590F838E0BEF1000F15D0006A6FF0004C031D002000BF5A68624507D053F8042C8A4203D81C6822448A4205D80130704503F12803EFD3FF20C0B210BDA0F5C0007047406840420840704770B5044680680E46B1FBF0F1226901FB00F5954203D101FB1060E0600FE0E06868B194F8391029B194F83B202046FFF78EFF18B9204600F07CF8800301FB01330A3000B170BD204629462561FFF7D8FFA169884205D06068B5FBF0F101FB00F06061002070BDA068B6FBF0F1D7E7000080B546F2C06CC8F2410C9CF8000010B346F2F860C8F241006A
:F0B660000068002200F124016FF0004E002000BF41E9092241E907EE01F8142CC1F800E041F8072C41F80B2C41F80F2C41F8132C9CF800300130984201F12801E8D346F2FC60C8F241000068002180F8381080BD0246B1F5C00F4FF0000038BF7047D26902F5C0028A4228BF01207047B0B546F2FC65C8F241052C6840212046A2F5BAFF46F2F860C8F2410000682062FFF7ACFF4AF25C122868C8F240024FF0FF3112684163916912698B69496AC0E90131C261B0BD0301FB012A0B300010B54AF27C41C8F2400104460069CA696169904214D288420BD1A061FFF750FF616866F57EFD28B36168D4E9040211446161FFF745FF0B
:F0B750002168A26866F59AFF0FE0884209D16168A06187F56CFC90B16168D4E90402114461612168A26887F5DCFC30B1A168226900201144E060216110BD032010BD042010BD000080B51204B1F804C042EA83420968624443F2002CC8F6B47C42F4003E0CF500724CF8201042F820E05CF820308B42F7D152F82030734508BF80BDF1E770474FF0000CC1F800C053F537BE70B586B042F65825C8F2410529680446059166F57CFEA0B14AF29016C8F24006346004AC204666F5CBFD204666F512FE38B1300301FB01210C3000684AF26011C8F2400166F5E5FD40B100202968059A891A04BF06B070BD2BF58BF966F53CFE002884
:F0B84000F2D04AF294143068C8F240044AF260132146C8F24003012266F533FC00284FF00000E2D121680131DFD06C46204666F5A8FD30684AF26012C8F24002214666F5AEFEB0FA80F04009CFE72DE9F04786B042F65826C8F2410630684AF25C170590C8F240073D680DB34AF29410C8F24000006842F20101CFF61871884216D1A8690421D0F848802846FFF7A6FC0090684602900DF1070003901FF597FA824600204FF47A71002427F54DFE48B100203168059A891A04BF06B0BDE8F0872BF528F94AF29019C8F24009D9F800004AF260130301FB01180D300002AA2946C8F240038DF81040FFF71CFC50BB9DF8070000F031
:F0B930003801382924D040F0380146F6C400C8F24100012200688DF8102002688DF8071003921FF55AFBD9F800004AF2601302AA2946C8F24003FFF7FBFB48B94FF47A7008FB00F04AF26011C8F2400166F5C8FD38684FF480318069D822816141690A604FF4C051016450464FF47A7127F5F6FDA9E770B584B042F65825C8F2410529684AF290160391C8F240063268044610464AF260120DF10201C8F24002234600F057F808B100200BE09DF80200617888420ED19DF80300A178401AB0FA80F040092968039A891A04BF04B070BD2BF5ACF830684AF260120DF10201C8F24002230301FB010F0E30004600F036F80028DDD1E8
:F0BA20009DF8020061788842D8D1DEE780B50EF068FC002818BF012080BD80B50EF05AFC002818BF012080BDB0B598B1054600204FF47A71002427F59DFD98B92846FFF7A4FF48B128460EF03EFC0446002818BF012402E0002405E0002401204FF47A7127F588FD2046B0BDF0B587B042F65827C8F241070D46396814460691064600201978022203230590CDE90030CDE9022005AB30460022049427F586FD30B93046294609220023009427F508FD3968069A891A04BF07B0F0BD2BF542F8F0B583B042F65826C8F2410630684FF0FF3102904AF29410C8F2400001604AF2C430C8F240004AF290170021C8F24007C4F6030143
:F0BB1000FB01060F3000E071006839604AF25C11C8F24001826908609068116A002401AD047528460C7566F542FC284666F589FC48B138684AF26011C8F2400166F55CFCB0FA80F0440930680299401A02BF204603B0F0BD2BF500F8F0B581B046F6C407C8F241073A689AB3044601EB810046F23072C8F2410246F60C1502EBC000C8F241052A461FF517FA46F2C8623968C8F241021070084621461FF514FA3968D1E90221914208D1064600F098F880B13868314622461FF50DFA46F61C10C8F24100002101600120C5E90011C5E9021100E0002001B0F0BD000010B546F6C001C8F2410191F800E0BEF1000F17D046F2307104
:F0BC0000C8F241010B1D00216FF0004C5A0301FB01FD0F300068624507D053F8042C824203D81C682244824205D80131714503F12803EFD3FF21C8B210BD10B500F0E2F946F2C864C8F24104207818B11FF5E2F90020207010BDA0F5C000704770B546F6C406C8F241063268002A0CD0054690681369B5FBF0F101FB00F49C4205D101FB1050D0601DE000252FE0D068C8B146F61C10C8F24100006840B146F22871C8F241010978C0B2FFF763FF00B300F022F832689168B5FBF1F303FB11510546D16000E001254AF25C10C8F2400001682046146166F581FB31688A69904205D04868B4FBF0F202FB00F04861284670BD326883
:F0BCF0000025E7E7B0B546F6C404C8F24104256875B12869FFF7A7FF2968AA680301FB01F410300066F5D2FC216800228B680D69CA60EA180A61B0BD0020B0BD10B546F61C11C8F241010A68044642B146F22870C8F241000178D0B2FFF716FF70B146F6C400C8F24100006820B1C06810B1FFF7CDFF28B166F52CFB012010BD042000E00220E072002010BD80B501F0AFF94AF2C83046F62011C8F24000C8F24101016080BD000082B046F20074C8F24104206846F204750190C8F24105286840F25821009046F2C860C8F24100C0F20001A2F587FC019846F6D0012060009846F6E0042860C8F241040020C8F2410101224FF0AC
:F0BDE0000133C4E90000C4E90200CA73C1E9003346F2C961C8F2410140230B7031238B7046F2CC61C8F2410140F20E0301FB01EB113000430B808A70FC220A7146F22C71C8F24101087000F0F5FC00F0F3F846F2F46046F6C801C8F24100C8F2410100780978084304BF0620E0724AF25510C8F2400000780A2809D146F6E000C8F2410000F062FB40B100F053FC05E046F6E000C8F2410000F0C0FCFEE7F0B583B046F2C860C8F24100029040F25820C0F2000046F2007446F204750190C8F24104C8F2410526682F68019818B102980199A2F5F1FB4FF20030C8F24A0026602F60029040F20000C0F200000190019818B10298EB
:F0BED0000199A2F5DFFB40F26050C0F230001EF535FF4EF2380041F66D01C8F24000C0F2300101604AF60C5040F6E331C8F24000C0F23001016025F5DBFA0301FB01E21230000A2814D146F620114FF20030C8F24101C8F24A00401A01904AF25510C8F240000A220270019A012000231FF529F849F6E830C8F240008088000558BFFFF7D9FD2068296803B0BDE8F0400EF0ECB90146B0F5C00F4FF0000011D346F2F462C8F2410212785AB14AF25C10C8F240000068006900F5C00200208A4228BF0120704746F6C802C8F241021278B2B1024646F20070C8F24100D0F800C00020944588BF704746F20473C8F241031B68114476
:F0BFC00003EB0C02914238BF012070470020704749F6FF42C8F240029042084440F200014FF000034FF00002C8F24B0188BF0122884238BF012302EA03007047B0B5044600206FF00045C4E9000301FB01D91330000004F110001121C4E90255A2F564FB6562B0BDB0B546F230750024C8F241052819FFF7E7FF2834B4F5C87FF8D146F6C000C8F241000021017046F22D70C8F241000170B0BD00002DE9F04F87B042F65827C8F241073A688246069246F2FC62C8F2410212680520002A00F09F8046F2F863C8F241031B68002B00F097804AF6AB20CAF6AA20A1FB0001C1F3C708B8F1000F7CD040F6007E46F2B0690020C8F6CD
:F0C0B000B67EC8F241094FF0000B00BF00EB40015AF8210000286AD00AEB810399688FB2012F1BD1D3F804C049F60043C8F240031F68DEF8005005F00F05AF4216D1DEF8007007F00F07012F05D0DEF8007007F00F07082F0AD106270301FB01D014300009E000BFD9F80C3099E88300059302AB83C33AE00527D9E90063D9E90245CDE9044546F2C064C8F2410492F8385024780393A542029638D2126A05EB85030C0C02EBC30542F833000220C5E901C7E8600120287405F1110002A910227646A2F588F99DF80700BDF8051085F8230046F2FC60A5F821106C62C8F241000268B64692F83800013082F838000BF1010B5FFAEE
:F0C1A0008BF080458ED810460EF0E3F808B1002004E0FFF775FA022000E0062042F65827C8F241073968069A891A04BF07B0BDE8F08F2AF5E1FC10B546F2FC64C8F24104206890F8391029B190F83B20FFF7CBF928B92068C16821B1FFF7B7FA00B110BD206890F83C00280301FB01C7153000B11EF518FF2068002180F83C1086F591FF072010BD2DE9F04746F2FC6AC8F2410ADAF80060002E00F08280044696F8380000287CD08846304621469146FFF760FA002877D004EB0900411E3046FFF758FA00286FD0706B411C01D0A04207D030462146FFF7E5F900286AD1DAF80060B9F1000F62D0374600BF38462146FFF7B2F9A5
:F0C29000FF282FD0054697F83A0001280CD197F83B20954208D097F839103846FFF76FF900284DD1DAF8007097F8390018F8011B421C384487F8392080F82410DAF8000090F83910102905D32A46FFF758F9B8BBDAF80000A9F10109013480F83B5001201DE000BF97F8391029B197F83B203846FFF745F920BB0301FB01BE16300018F8011B30461EF5A1FED6E90210A9F10109013401308842F06004D3DAF80000FFF724FA88B90020DAF80070B9F1000F87F83A00A5D106E00520BDE8F0870120BDE8F087374600207C63BDE8F08780B546F2C060C8F241000078402100EB800001EBC0006BF594F878B146F2FC62C8F2410214
:F0C3800000F14001106046F2F860C8F241000160FFF7D0F9012080BD002080BD4AF29410C8F24000006842F20101CFF61871884218BF70474AF25C10C8F2400000684FF480318069D822816141690A604FF4C05101647047B0B50C4605463FF65DF800286BD0A96A8A1E0E2A00F108015FD80FF2080303EB82039F4600F055B800F04FB800F049B8000301FB01B5173000F043B800F03DB800F037B800F031B800F02BB800F025B800F01FB800F019B800F013B800F00DB800F007B800F000B8816844F8041B00F10C0151F8042B44F8042B51F8042B44F8042B51F8042B44F8042B51F8042B44F8042B51F8042B44F8042B51F897
:F0C47000042B44F8042B51F8042B44F8042B51F8042B44F8042B51F8042B44F8042B51F8042B44F8042B51F8042B44F8042B51F8042B44F8042B51F8042B44F8042B51F8042B44F8042B09682160BDE8B0406BF56FBAB0BD10B50020002424F5F9FF4EF23800C8F2400004604EF68D50C8F240000470FFF754F8012010BDB0B54AF2DD45C8F240056968044641F0400020F01000686005200301FB01AC18300095F54CF929680A4660F34512C0072A6007D1082269680020E272BDE8B04094F501BDC80602D495F562F938B1686840F020006860BDE8B04094F50BBD6968082041F00041E07200206960BDE8B04094F5E9BC000038
:F0C560002DE9F04F81B046F2F46146F6C802C8F24101C8F24102097812780546114300F0B5800120012195F57DF9E87A4FF00008002840F0D5804AF2DD4A4FF480790027C8F2400A002600BF47EA0601012095F55AF9CAF8049094F5D2FC00BF0020102194F5E4FC012094F548FF044610F1110F00F0010B01D85F45F0D1DAF8040020F48070CAF8040094F5BAFC14F1100F80F0888024F0010630460621FFF701FD002800F08B0301FB01A319300080B078810740F0858071793279F37842EA0122317843EA0223727840EA0327B41D002F2C6024D0384641EA0229FFF7AEFC40B346F6C800C8F24100007810B1E86800286CD159
:F0C65000686829890844874204D03846FFF726FB002860D028466F60A5F8089000F08EF900284FF4807934D155E000BF002068604C20A872284600F0F9F950BB2FE000BF38464946FFF7B8FC20B938464946FFF794FCE0B338464946FFF78FFC90B146F2F460C8F24100007860B1E86850B946F2F460C8F2410080F8008000F074F82C68E86000BF204649463A4600F001FD4FF48079E87A8BF0010700283FF461AF4FF0000829E04AF2DD41C8F240014A680620E8720301FB019A1A300042F00040486017E02846FFF732FBFFF7BBFA0DF048FE4FF0010814E0012004E0032002E0042000E00620DAF80410E87241F00040CAF844
:F0C74000040000204FF000414FF0000894F5F8FB404601B0BDE8F08F10B5012094F566FE4AF2DD44C8F24004606840F01000606094F5FDFB20680A2120F0100020604AF25510C8F2400001700A2024F5B7FE4EF68D50C8F2400001784FF0FF3000290EBF6FF005004AF20051C8F24001FEF7B6FD00204FF00041BDE8104094F5C1BB70B588B042F65826C8F241063068079049F6E830C8F240008088000508D446F2F460C8F24100007810B9FFF7ACF9F8B146F2007046F20471C8F24100C8F241010068090301FB01911B3000680DF0B9FD90B146F26060C8F2410090E81E00D0E90405CDE9050501A81EC001A8FFF745F900283E
:F0C8300018BF012000E000203168079A891A04BF08B070BD2AF5C4F910B50446C07A03E0204600F028FBE07A0028F9D0BDE8104000F04BB8B0B50020C4F6E070FEF7FBFF46F2F464C8F24104002820700FD046F6C40546F2D860C8F24105C8F2410028600DF03AFEFFF739F8E8B100202070FFF792FF4AF25511C8F24001097846F6C802C8F241020A29107007D146F6E000C8F24100BDE8B040FFF720BE4FF4E130BDE8B040FEF79FBD4AF25C10C8F2400000680028DAD080690028D7D081692A68406AC2E9011065F5DFFCD1E710B582B042F60301FB01881C30005824C8F2410420680121019058208DF803000DF1030000227A
:F0C92000FEF7D2FD20680199401A04BF02B010BD2AF552F94AF25511C8F2400109780A2918BFFEF743BD01684A1C02600878704710B50446FEF73AFD012818BFA072FEF735FDA07210BD4AF25511C8F2400109780A2918BFFEF741BDB0B50446FFF7DAFF05462046FFF7D6FF45EA00252046FFF7D1FF45EA00452046FFF7CCFF45EA0060B0BD00002DE9F04F81B046F6C408C8F24108D8F80010002968D007890446002F60D0656846F61C1946F2287A46F22C7BC8F24109C8F2410AC8F2410B2846FFF73BF9FF282AD006469BF8000001280AD1DAF80010B14206D099F80000C9B2FF0301FB017F1D3000F7EBF8002840D0204690
:F0CA1000FFF794FFD9F8001046F60C12C8F241025054481C1028C9F8000004D3C0B23146FFF7D6F860B3013F01350120CAF8006020E000BFD9F8000028B19AF80010C0B2FFF7C6F8E0B1D8F800602046FFF76EFF014630461EF515FBD8F80000013FD0E90221013501319142C16002D3FFF772F930B10020002F8BF80000ABD1012002E00420E072002001B0BDE8F08F2DE9F04F8BB042F65822C8F24102116804460A91807A4C2840F0A380E84646F22D7B08F111090027C8F2410B4046FFF7C3FA1FB92046FFF74CFF074620460097FFF747FF01902046FFF72AFF07462046FFF726FF47EA00209BF80010012801F1010103018B
:F0CB0000FB01761E300002908BF800101CD149F6004040F60072C8F24000C8F6B6720068116801F00F01884214D1106800F00F00012804D0106800F00F0008280AD14FF0000A062009E000BF4FF0010A6FF0004003E000BF4FF0000A0520029002200390012046F6D0018DF810004846C8F241011022A1F5AEFC2046FFF7E4FE07462046FFF7E0FE47EA0020BAF1000F09902BD146F6C001C8F2410108460878092825D846F2307200EB8001C8F241029DE88840164602EBC10246F83130099BDDF80CA0DDE9041C5362089BDDE90665C2E9017EC2E903A146F6C0010130C8F24101C2E905C6C2E907530870002500E0012520467F
:F0CBF000FFF7C1FE58B10746002D3FF4690301FB016D1F3000AF0720E07200200AE00320E07200200AE02046FFF7B1FE2046FFF7AEFE012042F65822C8F2410211680A9A891A04BF0BB0BDE8F08F29F5D9FFB0B50446FEF7E6FB46F6C400C8F24100006850B14069FFF73FF84FF0FF3165F542FBB0FA80F0400900E0012046F2CC65C8F24105A17A6871FF20E9702871284606210122FEF72DFCFC202871B0BD10B50446FEF7A8FB042820813AD1FEF7A3FB6060FEF7A0FB616841EA00206060FEF79AFB616841EA00406060FEF794FB616841EA006060602046FFF76DF846F2CC60A27A0021C8F241004171C2700621012201244E
:F0CCE000FEF7FEFBFEF7E9FF0DF076FB4EF68D50C8F2400001784FF0FF3000290301FB01642030000EBF6FF005004AF20051C8F24001FEF71BFB02E00220E0720024204610BD000070B582B00546FEF75FFBFEF75DFBFEF772FB044646F2CC60A97A0026C8F241004671C17006210122FEF7CCFB01960198C0097C2807D800BF0198013001900198B0F57A5FF8D32046FEF766FB002002B070BD00002DE9F04FC1B042F65829C8F24109D9F8001083464091FEF72DFB032835D90646FEF728FB8046FEF725FB0546FEF722FB0746FEF71FFB46F2F46246F6C801C8F24102C8F24101147891F800A05AEA04011BD048EA052141EAE4
:F0CDD000074141EA006515B3043E284631461746FFF72EF928B928463146FFF70AF9002840D0F0B25FEA8871CBF8040301FB015B21300050ABF8080014D001208BF80B000020D9F80010409A891A04BF41B0BDE8F08F29F5EDFE0020CBF804005846FFF745FE21E0300609D00DF10104FEF7DAFA04F8010B013E3006F8D13C7828460021FFF7DBF848B144B1DBF80C0028B900203870FFF7C8FCCBF80C00BBF808100DF101002A4600F054F90120CAE72846FFF7ABF80028C1D0BAF1000F04D0DBF80C0008B10620BAE7DBF80400BBF808100844854204D02846FEF721FF0028ADD05FEA8870CBF80450ABF80860A6D146F6C4008B
:F0CEC000C8F2410000680028A2D05846FFF77EFD0028D1D19CE7B0B504460020E0722046FFF74AFDA57A4B2D06DC0A2D18BF0D2D26D0182D04D01CE04C2D0301FB015222300018BF4E2D0FD1FEF778FA0146A07AFC2916D118281AD04E2821D04C2825D12046FFF731FF1EE0CE2D06D1FEF766FAFF2829D00146A07A03E0FEF75FFA014628460122FEF722FB0020E072B0BDFEF755FA06280AD12046BDE8B040FFF7EABE2046FFF79FFE08B1002100E0122146F2CC60C8F241004171A37A06210122C370BDE8B040FEF7B8BA46F2F460C8F24100007830B1FEF732FA2046BDE8B040FFF75ABEA07AFF2106220625FEF7EFFAE57210
:F0CFB000B0BD46F21870C8F24100416801B1704780B542F29D3142F27D32C0F23001C0F23002C0E9011244F6ADFA46F22470C8F24100BDE8804045F659BE46F224720146C8F2410200201170700301FB01492330004710B598B10446FFF7D7FF207801280DD1204600F055F8044648B946F20870C8F241000024446000F030F800E02924204610BDB0B546F21471C8F241010D683DB10446A96809B1204688472D68002DF8D1B0BDF0B581B046F21472C8F241021668044676B10D4620462746726812B12046294690473668B84238BF0746002EF4D100E02746F8B201B0F0BD90B1416809B9816871B146F21472C8F241021168F8
:F0D0A00051B100BF0A4609680029FBD100211060016004E0292102E00021016010600846704710B586B042F65824C8F2410421680591C178042922D10121ADF8071000214FF480728DF80910ADF80C208DF812104268CDF80E108DF8030178402430001320817840788DF80A108DF80B000DF107024FF627400D210023BDF51CFD002818BF282000E029202168059A891A04BF06B010BD29F570FDB0B5144650F552F94EF68D55C8F24005287888B946F2A461C8F2410120460822A1F588F940B9204685F59AFA20B1204624F5DEF901202870B0BD00000301C001BC24300080B584B000200390FFE7039840F20801C0F2000188D9
:F0D19000424ED2FFE7039846F62011C8F24101084402900298006820F06040019002980068400F8DF803009DF80300002805D1FFE702984068019908602DE09DF80300012805D0FFE79DF80300022806D1FFE701980299496886F5A3FC1CE09DF80300032805D0FFE79DF80300042806D1FFE701980299496886F5B5FC0BE09DF80300052806D1FFE701980299496886F5C3FCFFE7FFE7FFE7FFE7FFE7039808300390A9E704B080BD000003010C2069418011280A20A50B30001603020000060104591130000301080067418000008002030108046741800000800004030C2000200014141A660A15000009010402011C000F0381
:F0D28000280278147F5A001402141E000203001EAA331905CF00800A9200000000070000A200000000000000000C07B30203030801080200000C010508010904010D000111FC0115F8011AF4011FF001010C010508010904010E000112FC0117F8011CF40120F001000C010508010904010D000111FC0115F8011AF4011FF001001202040E02040A010806010C020110FE0114FA0119F601001202030E01070A010B06010F020113FE0117FA011BF601001202040E02040A010806010C020110FE0114FA0119F601000301000005090D11151A1F0C080400FCF8F4F00105090E12171C200C080400FCF8F4F00005090D11151A1F04
:F0D370000C080400FCF8F4F0010302010004040404040404120E0E0E0E0E0E0E00040404040404040E0C0C0C0C0C0C0C0004040404040404120E0E0E0E0E0E0E020303FF0004080C1013161B0400FCF8F4F0ECE80004080C1013161B0400FCF8F4F0ECE80004080C1013161B0400FCF8F4F0ECE80D07DC04020309060501009C02B38FA002B38FA402B38FA802B38FAC02B38F1803B38F1C03B38F2003B38F2403B38FC802B38FCC02B38FD002B38FD402B38FD802B38FB003B38FB403B38FB803B38FBC03B38F0008B38F0408B38F0808B38F0C08B38F1008B38F1408B38F1808B38F1C08B38F2008B38F3D3B3A3B393939383938
:F0D46000464544444444444444504E4E4D4D4D4D4D4E5C5B5A595A5959595A666564636363636364716F6E6D6D6B6B6B6B504E4E4D4D4D4D4D4E484645454545454444514F4E4E4E4E4E4D4E5B5958575758585757676564646364646363716F6D6D6D6E6D6D6D7F7B7B7A797B7B7A7B5B59585757585857573D3B3A3B3939393839464544444444444444504E4E4D4D4D4D4D4E5C5B5A595A5959595A666564636363636364716F6E6D6D6B6B6B6B504E4E4D4D4D4D4D4E150201A806B38FAC06B38FB006B38FB406B38FB806B38FBC06B38FC006B38FC406B38FC806B38FCC06B38FD006B38FD406B38FD806B38FDC06B38FE083
:F0D5500006B38FE406B38FE806B38FEC06B38F2408B38F2808B38F2C08B38F3008B38F3408B38F3808B38F3C08B38F4008B38F4408B38F35343332322E2D2D2D4847464544413E3D3E5B595959575453515373716F6F6D696767678C8888888882817D7DACA8A8A8A8A4A0A0A05B59595957545351533231313132313131314444434444434343445755555657565556576E6D6D6D6F6E6D6D6F8482828284848181849E9E9E9EA0A0A0A0A057555556575655565735343332322E2D2D2D4847464544413E3D3E5B595959575453515373716F6F6D696767678C8888888882817D7DACA8A8A8A8A4A0A0A05B5959595754535153AD
:F0D640000301A41304F340805449B38FFF000000220000002200000022000000220000002200000041000000230000004100000041000000410000002D000000280000002D0000002D0000002D00000042000000420000003F0000003F0000003F0000009802B38FFF0000000700000007000000070000000700000007000000070000000700000007000000070000000700000007000000070000000700000007000000070000000700000007000000070000000700000007000000C402B38FFF0000000A0000000A0000000A0000000A0000000A0000000A0000000A0000000A0000000A0000000A0000000A0000000A000000D6
:F0D730000A0000000A0000000A0000000A0000000A0000000A0000000A0000000A0000009C03B38FFF0000000F0000000F0000000F0000000F0000000F00000008000000080000000800000008000000080000000F0000000F0000000F0000000F0000000F0000000900000009000000090000000900000009000000A003B38FFF0000000F0000000F0000000F0000000F0000000F00000008000000080000000800000008000000080000000F0000000F0000000F0000000F0000000F0000000900000009000000090000000900000009000000A403B38FFF0000000F0000000F0000000F0000000F0000000F00000008000000E4
:F0D82000080000000800000008000000080000000F0000000F0000000F0000000F0000000F0000000900000009000000090000000900000009000000A803B38FFF0000000F0000000F0000000F0000000F0000000F00000008000000080000000800000008000000080000000F0000000F0000000F0000000F0000000F0000000900000009000000090000000900000009000000AC03B38FFF0000000F0000000F0000000F0000000F0000000F00000008000000080000000800000008000000080000000F0000000F0000000F0000000F0000000F00000009000000090000000900000009000000090000008803B38FFF00000002
:F0D91000080000000800000008000000080000000800000008000000080000000800000008000000080000000F0000000F0000000F0000000F0000000F00000009000000090000000900000009000000090000008C03B38FFF000000080000000800000008000000080000000800000008000000080000000800000008000000080000000F0000000F0000000F0000000F0000000F00000009000000090000000900000009000000090000009003B38FFF000000080000000800000008000000080000000800000008000000080000000800000008000000080000000F0000000F0000000F0000000F0000000F000000090000004F
:F0DA0000090000000900000009000000090000009403B38FFF000000080000000800000008000000080000000800000008000000080000000800000008000000080000000F0000000F0000000F0000000F0000000F00000009000000090000000900000009000000090000009803B38FFF000000080000000800000008000000080000000800000008000000080000000800000008000000080000000F0000000F0000000F0000000F0000000F00000009000000090000000900000009000000090000004049B38FFF00000020000000200000002000000020000000200000002000000020000000200000006A000000200000007A
:F0DAF0002000000020000000200000006A000000200000002400000024000000220000006A000000220000005049B38FFF00000020000000200000002000000020000000200000002000000020000000200000006A000000200000002000000020000000200000006A000000200000002400000024000000220000006A000000220000000009B28F000200000000000000000000000000000000000000000000000000000000000000000000000200000000000000000000000000000000000000020000000000000000000000000000000000000002000000000000680AB38FE0000000000000000000000000000000000000003C
:F0DBE000000000000000000000000000000000000000000000000000000000000000000000000000000000000000000060000000600000006000000060000000600000006C0AB38FE00000000000000000000000000000000000000000000000000000000000000000000000000000000000000000000000000000000000000000000000000000006000000060000000600000006000000060000000700AB38FE0000000000000000000000000000000000000000000000000000000000000000000000000000000000000000000000000000000000000000000000000000000600000006000000060000000600000006000000081
:F0DCD000740AB38FE00000000000000000000000000000000000000000000000000000000000000000000000000000000000000000000000000000000000000000000000000000006000000060000000600000006000000060000000780AB38FE000000000000000000000000000000000000000000000000000000000000000000000000000000000000000000000000000000000000000000000000000000060000000600000006000000060000000600000003C01B28FFFFF00002D0500002D0500002D0500002D050000270500002D0500002D0500002D0500002D0500002D0500002D0500002D0500002D0500002D0500002E
